{
    "_format": "hh-sol-artifact-1",
    "contractName": "ARNftMarket",
    "sourceName": "contracts/ARNftMarket.sol",
    "abi": [
        {
            "inputs": [],
            "stateMutability": "nonpayable",
            "type": "constructor"
        },
        {
            "anonymous": false,
            "inputs": [
                {
                    "indexed": true,
                    "internalType": "uint256",
                    "name": "itemId",
                    "type": "uint256"
                },
                {
                    "indexed": true,
                    "internalType": "address",
                    "name": "nftContract",
                    "type": "address"
                },
                {
                    "indexed": true,
                    "internalType": "uint256",
                    "name": "tokenId",
                    "type": "uint256"
                },
                {
                    "indexed": false,
                    "internalType": "address",
                    "name": "seller",
                    "type": "address"
                },
                {
                    "indexed": false,
                    "internalType": "address",
                    "name": "owner",
                    "type": "address"
                },
                {
                    "indexed": false,
                    "internalType": "uint256",
                    "name": "price",
                    "type": "uint256"
                },
                {
                    "indexed": false,
                    "internalType": "bool",
                    "name": "sold",
                    "type": "bool"
                }
            ],
            "name": "MarketItemCreated",
            "type": "event"
        },
        {
            "inputs": [
                {
                    "internalType": "address",
                    "name": "nftContract",
                    "type": "address"
                },
                {
                    "internalType": "uint256",
                    "name": "tokenId",
                    "type": "uint256"
                },
                {
                    "internalType": "uint256",
                    "name": "price",
                    "type": "uint256"
                }
            ],
            "name": "createMarketItem",
            "outputs": [],
            "stateMutability": "payable",
            "type": "function"
        },
        {
            "inputs": [
                {
                    "internalType": "address",
                    "name": "nftContract",
                    "type": "address"
                },
                {
                    "internalType": "uint256",
                    "name": "itemId",
                    "type": "uint256"
                }
            ],
            "name": "createMarketSale",
            "outputs": [],
            "stateMutability": "payable",
            "type": "function"
        },
        {
            "inputs": [],
            "name": "fetchItemsCreated",
            "outputs": [
                {
                    "components": [
                        {
                            "internalType": "uint256",
                            "name": "itemId",
                            "type": "uint256"
                        },
                        {
                            "internalType": "address",
                            "name": "nftContract",
                            "type": "address"
                        },
                        {
                            "internalType": "uint256",
                            "name": "tokenId",
                            "type": "uint256"
                        },
                        {
                            "internalType": "address payable",
                            "name": "seller",
                            "type": "address"
                        },
                        {
                            "internalType": "address payable",
                            "name": "owner",
                            "type": "address"
                        },
                        {
                            "internalType": "uint256",
                            "name": "price",
                            "type": "uint256"
                        },
                        {
                            "internalType": "bool",
                            "name": "sold",
                            "type": "bool"
                        }
                    ],
                    "internalType": "struct ARNftMarket.MarketItem[]",
                    "name": "",
                    "type": "tuple[]"
                }
            ],
            "stateMutability": "view",
            "type": "function"
        },
        {
            "inputs": [],
            "name": "fetchMarketItems",
            "outputs": [
                {
                    "components": [
                        {
                            "internalType": "uint256",
                            "name": "itemId",
                            "type": "uint256"
                        },
                        {
                            "internalType": "address",
                            "name": "nftContract",
                            "type": "address"
                        },
                        {
                            "internalType": "uint256",
                            "name": "tokenId",
                            "type": "uint256"
                        },
                        {
                            "internalType": "address payable",
                            "name": "seller",
                            "type": "address"
                        },
                        {
                            "internalType": "address payable",
                            "name": "owner",
                            "type": "address"
                        },
                        {
                            "internalType": "uint256",
                            "name": "price",
                            "type": "uint256"
                        },
                        {
                            "internalType": "bool",
                            "name": "sold",
                            "type": "bool"
                        }
                    ],
                    "internalType": "struct ARNftMarket.MarketItem[]",
                    "name": "",
                    "type": "tuple[]"
                }
            ],
            "stateMutability": "view",
            "type": "function"
        },
        {
            "inputs": [],
            "name": "fetchMyNFTs",
            "outputs": [
                {
                    "components": [
                        {
                            "internalType": "uint256",
                            "name": "itemId",
                            "type": "uint256"
                        },
                        {
                            "internalType": "address",
                            "name": "nftContract",
                            "type": "address"
                        },
                        {
                            "internalType": "uint256",
                            "name": "tokenId",
                            "type": "uint256"
                        },
                        {
                            "internalType": "address payable",
                            "name": "seller",
                            "type": "address"
                        },
                        {
                            "internalType": "address payable",
                            "name": "owner",
                            "type": "address"
                        },
                        {
                            "internalType": "uint256",
                            "name": "price",
                            "type": "uint256"
                        },
                        {
                            "internalType": "bool",
                            "name": "sold",
                            "type": "bool"
                        }
                    ],
                    "internalType": "struct ARNftMarket.MarketItem[]",
                    "name": "",
                    "type": "tuple[]"
                }
            ],
            "stateMutability": "view",
            "type": "function"
        },
        {
            "inputs": [],
            "name": "fetchSomething",
            "outputs": [
                {
                    "components": [
                        {
                            "internalType": "uint256",
                            "name": "itemId",
                            "type": "uint256"
                        },
                        {
                            "internalType": "address",
                            "name": "nftContract",
                            "type": "address"
                        },
                        {
                            "internalType": "uint256",
                            "name": "tokenId",
                            "type": "uint256"
                        },
                        {
                            "internalType": "address payable",
                            "name": "seller",
                            "type": "address"
                        },
                        {
                            "internalType": "address payable",
                            "name": "owner",
                            "type": "address"
                        },
                        {
                            "internalType": "uint256",
                            "name": "price",
                            "type": "uint256"
                        },
                        {
                            "internalType": "bool",
                            "name": "sold",
                            "type": "bool"
                        }
                    ],
                    "internalType": "struct ARNftMarket.MarketItem[]",
                    "name": "",
                    "type": "tuple[]"
                }
            ],
            "stateMutability": "view",
            "type": "function"
        },
        {
            "inputs": [],
            "name": "getListingPrice",
            "outputs": [
                {
                    "internalType": "uint256",
                    "name": "",
                    "type": "uint256"
                }
            ],
            "stateMutability": "view",
            "type": "function"
        }
    ],
    "bytecode": "0x6080604052600060045534801561001557600080fd5b50600160008190555033600360006101000a81548173ffffffffffffffffffffffffffffffffffffffff021916908373ffffffffffffffffffffffffffffffffffffffff160217905550611c968061006e6000396000f3fe6080604052600436106100705760003560e01c806358eb2df51161004e57806358eb2df5146100f657806387349b0614610112578063c23b139e1461013d578063f064c32e1461015957610070565b80630f08efe01461007557806312e85585146100a0578063202e3740146100cb575b600080fd5b34801561008157600080fd5b5061008a610184565b60405161009791906116cd565b60405180910390f35b3480156100ac57600080fd5b506100b561044d565b6040516100c291906116fe565b60405180910390f35b3480156100d757600080fd5b506100e0610457565b6040516100ed91906116cd565b60405180910390f35b610110600480360381019061010b9190611776565b61074c565b005b34801561011e57600080fd5b50610127610a27565b60405161013491906116cd565b60405180910390f35b610157600480360381019061015291906117c9565b610ccd565b005b34801561016557600080fd5b5061016e610f4f565b60405161017b91906116cd565b60405180910390f35b60606000610192600161129b565b905060006101a0600261129b565b6101aa600161129b565b6101b49190611838565b90506000808267ffffffffffffffff8111156101d3576101d261186c565b5b60405190808252806020026020018201604052801561020c57816020015b6101f9611479565b8152602001906001900390816101f15790505b50905060005b8481101561044257600073ffffffffffffffffffffffffffffffffffffffff1660056000600184610243919061189b565b815260200190815260200160002060040160009054906101000a900473ffffffffffffffffffffffffffffffffffffffff1673ffffffffffffffffffffffffffffffffffffffff160361042f57600060018261029f919061189b565b90506000600560008381526020019081526020016000209050806040518060e0016040529081600082015481526020016001820160009054906101000a900473ffffffffffffffffffffffffffffffffffffffff1673ffffffffffffffffffffffffffffffffffffffff1673ffffffffffffffffffffffffffffffffffffffff168152602001600282015481526020016003820160009054906101000a900473ffffffffffffffffffffffffffffffffffffffff1673ffffffffffffffffffffffffffffffffffffffff1673ffffffffffffffffffffffffffffffffffffffff1681526020016004820160009054906101000a900473ffffffffffffffffffffffffffffffffffffffff1673ffffffffffffffffffffffffffffffffffffffff1673ffffffffffffffffffffffffffffffffffffffff168152602001600582015481526020016006820160009054906101000a900460ff161515151581525050848681518110610412576104116118cf565b5b602002602001018190525060018561042a919061189b565b945050505b808061043a906118fe565b915050610212565b508094505050505090565b6000600454905090565b60606000610465600161129b565b905060008060005b838110156104b65760005b848110156104a25760018461048d919061189b565b9350808061049a906118fe565b915050610478565b5080806104ae906118fe565b91505061046d565b5060008267ffffffffffffffff8111156104d3576104d261186c565b5b60405190808252806020026020018201604052801561050c57816020015b6104f9611479565b8152602001906001900390816104f15790505b50905060005b84811015610741573373ffffffffffffffffffffffffffffffffffffffff1660056000600184610542919061189b565b815260200190815260200160002060040160009054906101000a900473ffffffffffffffffffffffffffffffffffffffff1673ffffffffffffffffffffffffffffffffffffffff160361072e57600060018261059e919061189b565b90506000600560008381526020019081526020016000209050806040518060e0016040529081600082015481526020016001820160009054906101000a900473ffffffffffffffffffffffffffffffffffffffff1673ffffffffffffffffffffffffffffffffffffffff1673ffffffffffffffffffffffffffffffffffffffff168152602001600282015481526020016003820160009054906101000a900473ffffffffffffffffffffffffffffffffffffffff1673ffffffffffffffffffffffffffffffffffffffff1673ffffffffffffffffffffffffffffffffffffffff1681526020016004820160009054906101000a900473ffffffffffffffffffffffffffffffffffffffff1673ffffffffffffffffffffffffffffffffffffffff1673ffffffffffffffffffffffffffffffffffffffff168152602001600582015481526020016006820160009054906101000a900460ff161515151581525050848681518110610711576107106118cf565b5b6020026020010181905250600185610729919061189b565b945050505b8080610739906118fe565b915050610512565b508094505050505090565b6107546112a9565b6004543414610798576040517f08c379a000000000000000000000000000000000000000000000000000000000815260040161078f906119c9565b60405180910390fd5b6107a260016112f8565b60006107ae600161129b565b90506040518060e001604052808281526020018573ffffffffffffffffffffffffffffffffffffffff1681526020018481526020013373ffffffffffffffffffffffffffffffffffffffff168152602001600073ffffffffffffffffffffffffffffffffffffffff16815260200183815260200160001515815250600560008381526020019081526020016000206000820151816000015560208201518160010160006101000a81548173ffffffffffffffffffffffffffffffffffffffff021916908373ffffffffffffffffffffffffffffffffffffffff1602179055506040820151816002015560608201518160030160006101000a81548173ffffffffffffffffffffffffffffffffffffffff021916908373ffffffffffffffffffffffffffffffffffffffff16021790555060808201518160040160006101000a81548173ffffffffffffffffffffffffffffffffffffffff021916908373ffffffffffffffffffffffffffffffffffffffff16021790555060a0820151816005015560c08201518160060160006101000a81548160ff0219169083151502179055509050508373ffffffffffffffffffffffffffffffffffffffff166323b872dd3330866040518463ffffffff1660e01b815260040161098f939291906119f8565b600060405180830381600087803b1580156109a957600080fd5b505af11580156109bd573d6000803e3d6000fd5b50505050828473ffffffffffffffffffffffffffffffffffffffff16827f045dfa01dcba2b36aba1d3dc4a874f4b0c5d2fbeb8d2c4b34a7d88c8d8f929d1336000876000604051610a119493929190611a3e565b60405180910390a450610a2261130e565b505050565b60606000610a35600161129b565b90506000808267ffffffffffffffff811115610a5457610a5361186c565b5b604051908082528060200260200182016040528015610a8d57816020015b610a7a611479565b815260200190600190039081610a725790505b50905060005b83811015610cc357600073ffffffffffffffffffffffffffffffffffffffff1660056000600184610ac4919061189b565b815260200190815260200160002060040160009054906101000a900473ffffffffffffffffffffffffffffffffffffffff1673ffffffffffffffffffffffffffffffffffffffff1603610cb0576000600182610b20919061189b565b90506000600560008381526020019081526020016000209050806040518060e0016040529081600082015481526020016001820160009054906101000a900473ffffffffffffffffffffffffffffffffffffffff1673ffffffffffffffffffffffffffffffffffffffff1673ffffffffffffffffffffffffffffffffffffffff168152602001600282015481526020016003820160009054906101000a900473ffffffffffffffffffffffffffffffffffffffff1673ffffffffffffffffffffffffffffffffffffffff1673ffffffffffffffffffffffffffffffffffffffff1681526020016004820160009054906101000a900473ffffffffffffffffffffffffffffffffffffffff1673ffffffffffffffffffffffffffffffffffffffff1673ffffffffffffffffffffffffffffffffffffffff168152602001600582015481526020016006820160009054906101000a900460ff161515151581525050848681518110610c9357610c926118cf565b5b6020026020010181905250600185610cab919061189b565b945050505b8080610cbb906118fe565b915050610a93565b5080935050505090565b610cd56112a9565b600060056000838152602001908152602001600020600501549050600060056000848152602001908152602001600020600201549050813414610d4d576040517f08c379a0000000000000000000000000000000000000000000000000000000008152600401610d4490611af5565b60405180910390fd5b6005600084815260200190815260200160002060030160009054906101000a900473ffffffffffffffffffffffffffffffffffffffff1673ffffffffffffffffffffffffffffffffffffffff166108fc349081150290604051600060405180830381858888f19350505050158015610dc9573d6000803e3d6000fd5b50336005600085815260200190815260200160002060040160006101000a81548173ffffffffffffffffffffffffffffffffffffffff021916908373ffffffffffffffffffffffffffffffffffffffff16021790555060016005600085815260200190815260200160002060060160006101000a81548160ff021916908315150217905550610e5860026112f8565b610e976040518060400160405280601581526020017f4e667420436f6e747261637420416464726573733a000000000000000000000081525085611318565b610ed66040518060400160405280600881526020017f746f6b656e49643a000000000000000000000000000000000000000000000000815250826113b4565b600360009054906101000a900473ffffffffffffffffffffffffffffffffffffffff1673ffffffffffffffffffffffffffffffffffffffff166108fc6004549081150290604051600060405180830381858888f19350505050158015610f40573d6000803e3d6000fd5b505050610f4b61130e565b5050565b60606000610f5d600161129b565b905060008060005b83811015611005573373ffffffffffffffffffffffffffffffffffffffff1660056000600184610f95919061189b565b815260200190815260200160002060030160009054906101000a900473ffffffffffffffffffffffffffffffffffffffff1673ffffffffffffffffffffffffffffffffffffffff1603610ff257600183610fef919061189b565b92505b8080610ffd906118fe565b915050610f65565b5060008267ffffffffffffffff8111156110225761102161186c565b5b60405190808252806020026020018201604052801561105b57816020015b611048611479565b8152602001906001900390816110405790505b50905060005b84811015611290573373ffffffffffffffffffffffffffffffffffffffff1660056000600184611091919061189b565b815260200190815260200160002060030160009054906101000a900473ffffffffffffffffffffffffffffffffffffffff1673ffffffffffffffffffffffffffffffffffffffff160361127d5760006001826110ed919061189b565b90506000600560008381526020019081526020016000209050806040518060e0016040529081600082015481526020016001820160009054906101000a900473ffffffffffffffffffffffffffffffffffffffff1673ffffffffffffffffffffffffffffffffffffffff1673ffffffffffffffffffffffffffffffffffffffff168152602001600282015481526020016003820160009054906101000a900473ffffffffffffffffffffffffffffffffffffffff1673ffffffffffffffffffffffffffffffffffffffff1673ffffffffffffffffffffffffffffffffffffffff1681526020016004820160009054906101000a900473ffffffffffffffffffffffffffffffffffffffff1673ffffffffffffffffffffffffffffffffffffffff1673ffffffffffffffffffffffffffffffffffffffff168152602001600582015481526020016006820160009054906101000a900460ff1615151515815250508486815181106112605761125f6118cf565b5b6020026020010181905250600185611278919061189b565b945050505b8080611288906118fe565b915050611061565b508094505050505090565b600081600001549050919050565b6002600054036112ee576040517f08c379a00000000000000000000000000000000000000000000000000000000081526004016112e590611b61565b60405180910390fd5b6002600081905550565b6001816000016000828254019250508190555050565b6001600081905550565b6113b0828260405160240161132e929190611c00565b6040516020818303038152906040527f319af333000000000000000000000000000000000000000000000000000000007bffffffffffffffffffffffffffffffffffffffffffffffffffffffff19166020820180517bffffffffffffffffffffffffffffffffffffffffffffffffffffffff8381831617835250505050611450565b5050565b61144c82826040516024016113ca929190611c30565b6040516020818303038152906040527fb60e72cc000000000000000000000000000000000000000000000000000000007bffffffffffffffffffffffffffffffffffffffffffffffffffffffff19166020820180517bffffffffffffffffffffffffffffffffffffffffffffffffffffffff8381831617835250505050611450565b5050565b60008151905060006a636f6e736f6c652e6c6f679050602083016000808483855afa5050505050565b6040518060e0016040528060008152602001600073ffffffffffffffffffffffffffffffffffffffff16815260200160008152602001600073ffffffffffffffffffffffffffffffffffffffff168152602001600073ffffffffffffffffffffffffffffffffffffffff168152602001600081526020016000151581525090565b600081519050919050565b600082825260208201905092915050565b6000819050602082019050919050565b6000819050919050565b61153981611526565b82525050565b600073ffffffffffffffffffffffffffffffffffffffff82169050919050565b600061156a8261153f565b9050919050565b61157a8161155f565b82525050565b600061158b8261153f565b9050919050565b61159b81611580565b82525050565b60008115159050919050565b6115b6816115a1565b82525050565b60e0820160008201516115d26000850182611530565b5060208201516115e56020850182611571565b5060408201516115f86040850182611530565b50606082015161160b6060850182611592565b50608082015161161e6080850182611592565b5060a082015161163160a0850182611530565b5060c082015161164460c08501826115ad565b50505050565b600061165683836115bc565b60e08301905092915050565b6000602082019050919050565b600061167a826114fa565b6116848185611505565b935061168f83611516565b8060005b838110156116c05781516116a7888261164a565b97506116b283611662565b925050600181019050611693565b5085935050505092915050565b600060208201905081810360008301526116e7818461166f565b905092915050565b6116f881611526565b82525050565b600060208201905061171360008301846116ef565b92915050565b600080fd5b6117278161155f565b811461173257600080fd5b50565b6000813590506117448161171e565b92915050565b61175381611526565b811461175e57600080fd5b50565b6000813590506117708161174a565b92915050565b60008060006060848603121561178f5761178e611719565b5b600061179d86828701611735565b93505060206117ae86828701611761565b92505060406117bf86828701611761565b9150509250925092565b600080604083850312156117e0576117df611719565b5b60006117ee85828601611735565b92505060206117ff85828601611761565b9150509250929050565b7f4e487b7100000000000000000000000000000000000000000000000000000000600052601160045260246000fd5b600061184382611526565b915061184e83611526565b925082820390508181111561186657611865611809565b5b92915050565b7f4e487b7100000000000000000000000000000000000000000000000000000000600052604160045260246000fd5b60006118a682611526565b91506118b183611526565b92508282019050808211156118c9576118c8611809565b5b92915050565b7f4e487b7100000000000000000000000000000000000000000000000000000000600052603260045260246000fd5b600061190982611526565b91507fffffffffffffffffffffffffffffffffffffffffffffffffffffffffffffffff820361193b5761193a611809565b5b600182019050919050565b600082825260208201905092915050565b7f5072696365206d75737420626520657175616c20746f206c697374696e67207060008201527f7269636500000000000000000000000000000000000000000000000000000000602082015250565b60006119b3602483611946565b91506119be82611957565b604082019050919050565b600060208201905081810360008301526119e2816119a6565b9050919050565b6119f28161155f565b82525050565b6000606082019050611a0d60008301866119e9565b611a1a60208301856119e9565b611a2760408301846116ef565b949350505050565b611a38816115a1565b82525050565b6000608082019050611a5360008301876119e9565b611a6060208301866119e9565b611a6d60408301856116ef565b611a7a6060830184611a2f565b95945050505050565b7f506c65617365207375626d6974207468652061736b696e67207072696365206960008201527f6e206f7264657220746f20636f6d706c65746520746865207075726368617365602082015250565b6000611adf604083611946565b9150611aea82611a83565b604082019050919050565b60006020820190508181036000830152611b0e81611ad2565b9050919050565b7f5265656e7472616e637947756172643a207265656e7472616e742063616c6c00600082015250565b6000611b4b601f83611946565b9150611b5682611b15565b602082019050919050565b60006020820190508181036000830152611b7a81611b3e565b9050919050565b600081519050919050565b60005b83811015611baa578082015181840152602081019050611b8f565b60008484015250505050565b6000601f19601f8301169050919050565b6000611bd282611b81565b611bdc8185611946565b9350611bec818560208601611b8c565b611bf581611bb6565b840191505092915050565b60006040820190508181036000830152611c1a8185611bc7565b9050611c2960208301846119e9565b9392505050565b60006040820190508181036000830152611c4a8185611bc7565b9050611c5960208301846116ef565b939250505056fea2646970667358221220cc2fde27965c828d68eab8d7525bc06e16a99cda46d85c4845009147cc05f3a064736f6c63430008110033",
    "linkReferences": {},
    "deployedLinkReferences": {}
}